S0130000617474696E795F776966692E737265636A
S11300000C9434000C94BB000C9451000C945100DB
S11300100C9451000C9451000C9451000C94510018
S11300200C9451000C9451000C9451000C94510008
S11300300C9451000C9451000C9451000C945100F8
S11300400C9451000C9451000C9451000C945100E8
S11300500C9451000C9451000C9451000C945100D8
S11300600C9451000C94510011241FBECFEFD8E022
S1130070DEBFCDBF21E0A6E0B1E001C01D92AC30EF
S1130080B207E1F711E0A0E0B1E0E0E4F8E002C07B
S113009005900D92A630B107D9F70E947B000C940D
S11300A01E040C940000CF93DF930E94D600EC0151
S11300B085E290E09983888322E02A839C838B8362
S11300C021E02D839F838E8325E028879A87898763
S11300D023E02B879D878C8784E08E87E9E6F0E018
S11300E0808182608083E89ACE010E94C601CE019D
S11300F0DF91CF910895CF93DF93CDB7DEB7AD975E
S11301000FB6F894DEBF0FBECDBFCE0101967C01C1
S113011085E0F70111928A95E9F778940E945300DB
S11301208C01A70160E070E00E942D0121E030E025
S1130130AE014A5F5F4F60910601C8010E941F0132
S1130140809107018823E1F31092070106C0BE01E4
S1130150655F7F4FC8010E94C102C8010E949401DB
S11301608111F5CFAE014F5F5F4F60E070E0C801D1
S11301700E942D01E5CF1F920F920FB60F9211240A
S11301808F9381E0809307018F910F900FBE0F90A2
S11301901F901895FC01A62FB72F9C012B5F3F4F92
S11301A091919D93E217F307D9F7089580E190E0C8
S11301B00E94F10220E1FC0111922A95E9F70895C9
S11301C0CF93DF93EC01DA01E881F981508181E07A
S11301D090E00A8002C0880F991F0A94E2F7809584
S11301E0852380836EBD0DB407FEFDCF8EB58F874A
S11301F02115310579F0FD012A0F3B1FDF019081A4
S11302009EBD0DB407FEFDCF9EB59C933196E217BB
S1130210F307A1F7E881F981208181E090E00A8069
S113022002C0880F991F0A94E2F7822B80838F857E
S1130230DF91CF91089560620E94E00008950E94CA
S1130240E000089520E030E040E050E06FEF0E94CD
S1130250E00008950E9422010895DF92EF92FF9238
S11302600F931F93CF93DF9300D000D000D0CDB76E
S1130270DEB77C01D62ECA01BE016F5F7F4F0E949C
S1130280CA006AE06D0D25E030E0AE014F5F5F4FBC
S1130290C7010E941B0121E030E0AE014A5F5F4FBD
S11302A062E0C7010E941F0101E010E0C80102C022
S11302B0880F991FDA94E2F79E81892B8E8321E0BF
S11302C030E0AE014A5F5F4F62E0C7010E941B014C
S11302D0D7011396ED91FC911497808115960C909B
S11302E002C0000F111F0A94E2F7082B0083269620
S11302F00FB6F894DEBF0FBECDBFDF91CF911F9133
S11303000F91FF90EF90DF900895FC0127852E70E8
S113031030E035952795263031051CF4822F932F34
S113032008958FEF9FEF0895CF93DF93EC01EB8156
S1130330FC81808121E030E00D8002C0220F331F58
S11303400A94E2F7209528232083CE010E942A01F3
S1130350CE010E948501892F8095881F8827881FD8
S1130360DF91CF910895CF93DF931F92CDB7DEB77E
S113037020E7298321E030E0AE014F5F5F4F67E063
S11303800E941B010F90DF91CF910895FF920F936C
S11303901F93CF93DF931F92CDB7DEB78C01DC019F
S11303A0ED91FC911197429181E090E09C011296AD
S11303B00C90129702C0220F331F0A94E2F7242BE9
S11303C020831396ED91FC91149742919C0115960C
S11303D00C90159702C0220F331F0A94E2F7242BC6
S11303E02083ED91FC91119740819C0112960C9011
S11303F0129702C0220F331F0A94E2F7242B2083A2
S11304001396ED91FC9114973081AC0115960C90E4
S1130410159702C0440F551F0A94E2F7242F209524
S1130420232320832CB520612CBD2CB520642CBD46
S11304301696ED91FC91179742919C0118960C9099
S1130440189702C0220F331F0A94E2F7242B20834B
S11304501996ED91FC911A9742919C011B960C9070
S11304601B9702C0220F331F0A94E2F7242B208328
S11304701C96ED91FC911D9722911E960C9002C042
S1130480880F991F0A94E2F78095822380838CB5A4
S1130490877F8CBD8CB58B7F8CBD8CB58E7F8CBDDE
S11304A08CB58D7F8CBD8DB581608DBD8CB58F7DF8
S11304B08CBD20E030E040E050E062EEC8010E94D4
S11304C0E00020E030E040E050E061EEC8010E942E
S11304D0E000C8010E94B3018FE0898321E030E08D
S11304E0AE014F5F5F4F60E0C8010E941B010F2EF9
S11304F0FFE3FF2EF02DF98221E030E0AE014F5FE3
S11305005F4F61E0C8010E941B01F98221E030E0E5
S1130510AE014F5F5F4F6CE1C8010E941B0184E094
S1130520898321E030E0AE014F5F5F4F6DE1C80188
S11305300E941B01198221E030E0AE014F5F5F4F42
S113054062E0C8010E941B010F90DF91CF911F91BF
S11305500F91FF900895CF93DF931F92CDB7DEB72D
S1130560FC0197859064998321E030E0AE014F5FF0
S11305705F4F67E0CF010E941B010F90DF91CF9185
S113058008950F931F93CF93DF938C01EB010E9487
S1130590850199838883C8010E94AB02888199816F
S11305A099231CF41AA280E017C021E030E0AE01C8
S11305B04E5D5F4F60E6C8010E941F012AA12223FD
S11305C051F030E0AE014E5F5F4F61E6C8010E941A
S11305D0E00081E001C081E0DF91CF911F910F9194
S11305E00895CF93DF938230910510F482E090E078
S11305F0E0910A01F0910B0120E030E0C0E0D0E08E
S1130600309711F14081518148175907C0F04817BC
S1130610590761F482819381209719F09B838A831F
S11306202BC090930B0180930A0126C0211531053C
S113063019F04217530718F49A01BE01DF01EF01C4
S11306400280F381E02DDCCF2115310509F1281B4F
S1130650390B2430310590F412968D919C911397A7
S11306606115710521F0FB019383828304C090938B
S11306700B0180930A01FD01329644C0FD01E20F93
S1130680F31F81939193225031092D933C933AC0E7
S11306902091080130910901232B41F4209102019A
S11306A03091030130930901209308012091000146
S11306B0309101012115310541F42DB73EB7409128
S11306C0040150910501241B350BE0910801F091C0
S11306D00901E217F307A0F42E1B3F0B2817390773
S11306E078F0AC014E5F5F4F2417350748F04E0F8A
S11306F05F1F50930901409308018193919302C0B5
S1130700E0E0F0E0CF01DF91CF9108950F931F93C4
S1130710CF93DF93009709F48CC0FC0132971382C6
S1130720128200910A0110910B010115110581F447
S113073020813181820F931F20910801309109019A
S11307402817390779F5F0930901E093080171C07E
S1130750D80140E050E0AE17BF0750F412962D9137
S11307603C911397AD012115310509F1D901F3CF5E
S11307709D01DA013383228360817181860F971F83
S11307808217930769F4EC0128813981260F371FFA
S11307902E5F3F4F318320838A819B8193838283A1
S11307A0452B29F4F0930B01E0930A0142C0139600
S11307B0FC93EE931297ED01499159919E01240FF8
S11307C0351FE217F30771F480819181840F951F1F
S11307D0029611969C938E938281938113969C9397
S11307E08E931297E0E0F0E0D80112968D919C91DF
S11307F01397009719F0F8018C01F6CF8D919C9115
S113080098012E5F3F4F820F931F20910801309172
S113081009012817390769F4309729F410920B015C
S113082010920A0102C013821282109309010093EC
S11308300801DF91CF911F910F910895F894FFCF94
S109084000000C01200081
S9030000FC
