S00F00007768795F6E6F742E737265630D
S11300000C9434000C94B2000C9451000C945100E4
S11300100C9451000C9451000C9451000C94510018
S11300200C9451000C9451000C9451000C94A300B6
S11300300C9451000C9451000C9451000C945100F8
S11300400C9451000C9451000C9451000C945100E8
S11300500C9451000C9451000C9451000C945100D8
S11300600C9451000C94510011241FBECFEFD8E022
S1130070DEBFCDBF11E0A0E0B1E0E0E3F7E002C0F5
S113008005900D92AC30B107D9F721E0ACE0B1E0B6
S113009001C01D92A231B207E1F70E947B000C94CB
S11300A096030C940000CF93DF930E94CD00EC01E3
S11300B085E290E09983888322E02A839C838B8362
S11300C021E02D839F838E8325E028879A87898763
S11300D023E02B879D878C8784E08E87E9E6F0E018
S11300E0808182608083E89ACE010E948401CE01DF
S11300F0DF91CF910895CF93DF93CDB7DEB72A97E1
S11301000FB6F894DEBF0FBECDBF85E0E6E0F1E0A8
S1130110DE01119601900D928A95E1F778940E9480
S113012053008C01AE014F5F5F4F60E070E00E94AE
S1130130190121E030E0AE014A5F5F4F60E0C80181
S11301400E941601FFCF1F920F920FB60F92112437
S11301508F9381E080930C018F910F900FBE0F90CD
S11301601F9018951F920F920FB60F9211248F9320
S113017081E080930D018F910F900FBE0F901F901F
S11301801895FC01A62FB72F9C012B5F3F4F91912F
S11301909D93E217F307D9F7089580E190E00E9458
S11301A0690220E1FC0111922A95E9F70895CF93A1
S11301B0DF93EC01DA01E881F981508181E090E07C
S11301C00A8002C0880F991F0A94E2F7809585235C
S11301D080836EBD0DB407FEFDCF8EB58F872115CC
S11301E0310579F0FD012A0F3B1FDF0190819EBD8F
S11301F00DB407FEFDCF9EB59C933196E217F3072D
S1130200A1F7E881F981208181E090E00A8002C0B1
S1130210880F991F0A94E2F7822B80838F85DF91E0
S1130220CF91089560620E94D70008950E94D7007C
S11302300895DF92EF92FF920F931F93CF93DF9372
S113024000D000D000D0CDB7DEB77C01D62ECA01D5
S1130250BE016F5F7F4F0E94C1006AE06D0D25E013
S113026030E0AE014F5F5F4FC7010E94120121E0F1
S113027030E0AE014A5F5F4F62E0C7010E941601A1
S113028001E010E0C80102C0880F991FDA94E2F778
S11302909E81892B8E8321E030E0AE014A5F5F4F5F
S11302A062E0C7010E941201D7011396ED91FC91FF
S11302B01497808115960C9002C0000F111F0A94A8
S11302C0E2F7082B008326960FB6F894DEBF0FBE24
S11302D0CDBFDF91CF911F910F91FF90EF90DF90F1
S11302E00895CF93DF931F92CDB7DEB720E729831C
S11302F021E030E0AE014F5F5F4F67E00E941201E2
S11303000F90DF91CF910895FF920F931F93CF9396
S1130310DF931F92CDB7DEB78C01DC01ED91FC9128
S11303201197429181E090E09C0112960C901297F3
S113033002C0220F331F0A94E2F7242B2083139662
S1130340ED91FC91149742919C0115960C90159790
S113035002C0220F331F0A94E2F7242B2083ED916D
S1130360FC91119740819C0112960C90129702C047
S1130370220F331F0A94E2F7242B20831396ED9166
S1130380FC9114973081AC0115960C90159702C01E
S1130390440F551F0A94E2F7242F2095232320832A
S11303A02CB520612CBD2CB520642CBD1696ED9186
S11303B0FC91179742919C0118960C90189702C0D3
S11303C0220F331F0A94E2F7242B20831996ED9110
S11303D0FC911A9742919C011B960C901B9702C0AA
S11303E0220F331F0A94E2F7242B20831C96ED91ED
S11303F0FC911D9722911E960C9002C0880F991FA4
S11304000A94E2F78095822380838CB5877F8CBD24
S11304108CB58B7F8CBD8CB58E7F8CBD8CB58D7F60
S11304208CBD8DB581608DBD8CB58F7D8CBD20E07C
S113043030E040E050E062EEC8010E94D70020E0C6
S113044030E040E050E061EEC8010E94D700C801EE
S11304500E9471018FE0898321E030E0AE014F5F9B
S11304605F4F60E0C8010E9412010F2EFFE3FF2ED0
S1130470F02DF98221E030E0AE014F5F5F4F61E083
S1130480C8010E941201F98221E030E0AE014F5F01
S11304905F4F6CE1C8010E94120184E0898321E06E
S11304A030E0AE014F5F5F4F6DE1C8010E94120161
S11304B0198221E030E0AE014F5F5F4F62E0C80176
S11304C00E9412010F90DF91CF911F910F91FF9025
S11304D00895CF93DF938230910510F482E090E089
S11304E0E0911001F091110120E030E0C0E0D0E093
S11304F0309711F14081518148175907C0F04817CE
S1130500590761F482819381209719F09B838A8330
S11305102BC0909311018093100126C02115310541
S113052019F04217530718F49A01BE01DF01EF01D5
S11305300280F381E02DDCCF2115310509F1281B60
S1130540390B2430310590F412968D919C911397B8
S11305506115710521F0FB019383828304C090939C
S1130560110180931001FD01329644C0FD01E20F98
S1130570F31F81939193225031092D933C933AC0F8
S113058020910E0130910F01232B41F4209102019F
S11305903091030130930F0120930E01209100014B
S11305A0309101012115310541F42DB73EB7409139
S11305B0040150910501241B350BE0910E01F091CB
S11305C00F01E217F307A0F42E1B3F0B281739077E
S11305D078F0AC014E5F5F4F2417350748F04E0F9B
S11305E05F1F50930F0140930E018193919302C0BA
S11305F0E0E0F0E0CF01DF91CF9108950F931F93D6
S1130600CF93DF93009709F48CC0FC0132971382D7
S1130610128200911001109111010115110581F44C
S113062020813181820F931F20910E0130910F019F
S11306302817390779F5F0930F01E0930E0171C083
S1130640D80140E050E0AE17BF0750F412962D9148
S11306503C911397AD012115310509F1D901F3CF6F
S11306609D01DA013383228360817181860F971F94
S11306708217930769F4EC0128813981260F371F0B
S11306802E5F3F4F318320838A819B8193838283B2
S1130690452B29F4F0931101E093100142C0139605
S11306A0FC93EE931297ED01499159919E01240F09
S11306B0351FE217F30771F480819181840F951F30
S11306C0029611969C938E938281938113969C93A8
S11306D08E931297E0E0F0E0D80112968D919C91F0
S11306E01397009719F0F8018C01F6CF8D919C9126
S11306F098012E5F3F4F820F931F20910E0130917E
S11307000F012817390769F4309729F41092110161
S11307101092100102C01382128210930F010093F1
S11307200E01DF91CF911F910F910895F894FFCF9F
S10F073000001201200001010101010081
S9030000FC
