S01A0000626C7565746F6F74685F417474696E7938352E73726563EF
S11300000EC01DC058C01BC01AC019C018C017C0EC
S113001017C015C014C013C012C011C010C01124E1
S11300201FBECFE5D2E0DEBFCDBF20E0A0E6B0E04A
S113003001C01D92A036B207E1F730D070C1E0CF05
S11300401F920F920FB60F9211242F933F934F9349
S11300505F936F937F938F939F93AF93BF93EF932C
S1130060FF9365B170E080E090E062D028E03CEA64
S11300704CE15EE3C1D029D068BDFF91EF91BF91FF
S1130080AF919F918F917F916F915F914F913F912C
S11300902F910F900FBE0F901F901895CF93DF9361
S11300A000D0CDB7DEB7198283E38A8317BA80E81C
S11300B086BD16BCFFCF1F920F920FB60F9211246C
S11300C00F900FBE0F901F90189504D06894B11133
S11300D08DC0089570D088F09F5790F0B92F99275C
S11300E0B751A0F0D1F0660F771F881F991F1AF03F
S11300F0BA95C9F712C0B13081F077D0B1E0089554
S113010074C0672F782F8827B85F39F0B93FCCF3D4
S1130110869577956795B395D9F73EF49095809534
S1130120709561957F4F8F4F9F4F0895E89409C054
S113013097FB3EF490958095709561957F4F8F4F16
S11301409F4F9923A9F0F92F96E9BB279395F6952C
S1130150879577956795B795F111F8CFFAF4BB0FAA
S113016011F460FF1BC06F5F7F4F8F4F9F4F16C00E
S1130170882311F096E911C0772321F09EE8872F98
S1130180762F05C0662371F096E8862F70E060E054
S11301902AF09A95660F771F881FDAF7880F9695CD
S11301A0879597F9089557FD9058440F551F59F0B6
S11301B05F3F71F04795880F97FB991F61F09F3F50
S11301C079F087950895121613061406551FF2CF79
S11301D04695F1DF08C0161617061806991FF1CFC9
S11301E086957105610508940895E894BB276627F0
S11301F07727CB0197F908950AD080C071D028F0F1
S113020076D018F0952309F062C067C0EFCFCBDF3A
S1130210A8F39923D9F35523C9F3950F50E0551F3B
S1130220AA27EE27FF27BB2700240894679520F40C
S1130230E20FF31FB41F0A1E220F331F441FAA1F0D
S11302406695A9F7779530F4F30FB41F0A1E121EB2
S113025008F46395330F441FAA1F221F769599F75C
S1130260879520F4B40F0A1E121E631F440FAA1FA1
S1130270221F331F8695A9F7862F712D602D112417
S11302809F5750408AF0E1F088234AF0EE0FFF1F99
S1130290BB1F661F771F881F91505040A9F79E3FD0
S11302A0510570F014C0A2CF5F3FECF3983EDCF32D
S11302B0869577956795B795F795E7959F5FC1F70D
S11302C0FE2B880F911D9695879597F9089597F9B8
S11302D09F6780E870E060E008959FEF80EC0895E8
S11302E000240A9416161706180609060895002411
S11302F00A9412161306140605060895092E03948B
S1130300000C11F4882352F0BB0F40F4BF2B11F4FE
S113031060FF04C06F5F7F4F8F4F9F4F0895F89425
S1050320FFCF09
S9030000FC
